:100000000C9479000C94A1000C94A1000C94A10014
:100010000C94A1000C94B30A0C94A1000C94A100C0
:100020000C94A1000C940A0A0C94A1000C94A10059
:100030000C94A1000C94A1000C94A1000C94A100BC
:100040000C94210B0C94A1000C94910B0C946B0B51
:100050000C94A1000C94A1000C94A1000C94A1009C
:100060000C94C30B0C94A100084AD73B3BCE016E05
:1000700084BCBFFDC12F3D6C74319ABD56833DDAFF
:100080003D00C77F11BED9E4BB4C3E916BAAAABE0E
:10009000000000803F00000000002300260029002F
:1000A00000000000240027002A00000000002500B6
:1000B00028002B00040404040404040402020202C5
:1000C000020203030303030301020408102040801B
:1000D000010204081020010204081020000000089A
:1000E00000020100000304070000000000000000FF
:1000F000E20C11241FBECFEFD8E0DEBFCDBF11E070
:10010000A0E0B1E0EEEAF9E302C005900D92A2385A
:10011000B107D9F723E0A2E8B1E001C01D92A73EE4
:10012000B207E1F710E0C9E7D0E004C02197FE0173
:100130000E94E019C837D107C9F70E945A0D0C94E4
:10014000D51C0C94000099B190931603EDE6F0E0F5
:100150009081892B8083E8E6F0E080818460808351
:10016000089508950895833081F028F4813099F03E
:100170008230A9F008958730A9F08830C9F0843022
:10018000B1F4809180008F7D03C0809180008F77D3
:1001900080938000089584B58F7784BD089584B5D9
:1001A0008F7DFBCF8091B0008F778093B000089552
:1001B0008091B0008F7DF9CF1F93CF93DF93282FCD
:1001C00030E0F901E452FF4F8491F901E853FF4F09
:1001D000D491F901EC54FF4FC491CC23A9F0162F10
:1001E00081110E94B300EC2FF0E0EE0FFF1FE655E7
:1001F000FF4FA591B4918FB7F894EC91111108C0FD
:10020000D095DE23DC938FBFDF91CF911F910895AE
:10021000DE2BF8CFCF93DF9390E0FC01E853FF4F44
:1002200024918C549F4FFC0184918823D1F090E05D
:10023000880F991FFC01E056FF4FA591B491FC0176
:10024000E655FF4FC591D49161110EC09FB7F89448
:100250008C91E22FE0958E238C932881E223E88312
:100260009FBFDF91CF9108958FB7F894EC91E22B67
:10027000EC938FBFF6CF1F93CF93DF93182FEB0133
:1002800061E00E940A01209739F460E0812FDF913C
:10029000CF911F910C94DC00CF3FD10511F461E0A8
:1002A000F5CFE12FF0E0E452FF4FE491E33031F17C
:1002B00040F4E130B1F0E230E1F0C038D1057CF734
:1002C000E4CFE73029F1E83059F1E430B1F780911B
:1002D0008000806280938000D0938B00C0938A005E
:1002E00004C084B5806884BDC7BDDF91CF911F91E4
:1002F000089584B5806284BDC8BDF7CF8091800029
:10030000806880938000D0938900C0938800EDCFEF
:100310008091B00080688093B000C093B300E5CFB7
:100320008091B00080628093B000C093B400DDCFB4
:100330003FB7F8948091770290917802A09179026A
:10034000B0917A0226B5A89B05C02F3F19F00196FF
:10035000A11DB11D3FBFBA2FA92F982F8827BC011F
:10036000CD01620F711D811D911D42E0660F771F47
:10037000881F991F4A95D1F708958F929F92AF9247
:10038000BF92CF92DF92EF92FF924B015C010E94ED
:1003900098016B017C010E9498016C197D098E09FE
:1003A0009F09683E734081059105A8F321E0821AF8
:1003B0009108A108B10888EEC80E83E0D81EE11CA0
:1003C000F11C81149104A104B10429F7FF90EF906E
:1003D000DF90CF90BF90AF909F908F9008958091C5
:1003E000F4019091F501A091F601B091F701019609
:1003F000A11DB11D8093F4019093F501A093F60126
:10040000B093F70108958091F0019091F101A091CE
:10041000F201B091F3010196A11DB11D8093F0018D
:100420009093F101A093F201B093F3010895089520
:100430000895AF92BF92CF92DF92EF92FF920F9307
:100440001F93CF93DF936C017B018B01040F151F6A
:10045000EB015E01AE18BF08C017D10759F06991D2
:10046000D601ED91FC910190F081E02DC601099536
:10047000892B79F7C501DF91CF911F910F91FF90E3
:10048000EF90DF90CF90BF90AF900895FC01538D17
:10049000448D252F30E0842F90E0821B930B54175E
:1004A00010F0CF96089501970895FC01918D828DEB
:1004B000981761F0A28DAE0FBF2FB11D5D968C9184
:1004C000928D9F5F9F73928F90E008958FEF9FEFC3
:1004D0000895FC01918D828D981731F0828DE80F7F
:1004E000F11D858D90E008958FEF9FEF0895FC0139
:1004F000918D228D892F90E0805C9F4F821B910906
:100500008F739927089587E193E00E94770221E095
:10051000892B09F420E0822F089580E090E0892B58
:1005200029F00E94830281110C9400000895FC01BF
:10053000A48DA80FB92FB11DA35ABF4F2C91848D44
:1005400090E001968F739927848FA689B7892C93A1
:10055000A089B1898C91837080648C93938D848DF4
:10056000981306C00288F389E02D80818F7D8083F7
:100570000895EF92FF920F931F93CF93DF93EC01B7
:1005800081E0888F9B8D8C8D98131AC0E889F9893A
:10059000808185FF15C09FB7F894EE89FF8960833D
:1005A000E889F98980818370806480839FBF81E0BE
:1005B00090E0DF91CF911F910F91FF90EF90089500
:1005C000F62E0B8D10E00F5F1F4F0F731127E02EDB
:1005D0008C8D8E110CC00FB607FCFACFE889F98913
:1005E000808185FFF5CFCE010E949702F1CFEB8D80
:1005F000EC0FFD2FF11DE35AFF4FF0829FB7F894E7
:100600000B8FEA89FB8980818062CFCFCF93DF9304
:10061000EC01888D8823B9F0AA89BB89E889F9891A
:100620008C9185FD03C0808186FD0DC00FB607FC4F
:10063000F7CF8C9185FFF2CF808185FFEDCFCE0182
:100640000E949702E9CFDF91CF9108958F929F92F8
:10065000AF92BF92CF92DF92EF92FF92C090E501EE
:10066000D090E601E090E701F090E801809066020A
:1006700090906702A0906802B0906902A501940171
:10068000C701B6010E94521C1816BCF4A5019401C2
:10069000C701B6010E94ED196093E5017093E60170
:1006A0008093E7019093E801FF90EF90DF90CF9067
:1006B000BF90AF909F908F90089560E070E0CB0165
:1006C000EBCF2091ED013091EE0181E02630310534
:1006D00028F02830310511F080E00895089581E078
:1006E00090E0A0E0B0E08093340290933502A093B4
:1006F0003602B093370208958FEF9FEFDC018093AD
:10070000340290933502A0933602B09337020895D5
:100710001092340210923502109236021092370273
:10072000089510924E0210924F02109250021092B1
:100730005102109234021092350210923602109239
:100740003702089581E090E0A0E0B0E080936A0273
:1007500090936B02A0936C02B0936D02089582E0B7
:1007600090E0A0E0B0E080936A0290936B02A093C7
:100770006C02B0936D02089583E090E0A0E0B0E0D9
:1007800080936A0290936B02A0936C02B0936D0207
:10079000089584E190E0A0E0B0E08093140190938C
:1007A0001501A0931601B0931701089580E090E021
:1007B000A8E4B2E480934E0290934F02A0935002BB
:1007C000B0935102089580E090E0A8E4B2EC8093E9
:1007D0004E0290934F02A0935002B093510208959D
:1007E000CF93DF93C091B5032FEF2C0F283070F516
:1007F0002AE337E0DC010E94E61924EB30E040E018
:1008000050E00E9490192A5D3D4F4F4F5F4F2B3CA7
:1008100088E0380714F02AEC38E02E3E82E03807F2
:1008200014F42EEE32E028503109A901440F452F6F
:10083000441F550BD0E0FE01EE0FFF1FEC0FFD1F14
:10084000EF57FD4F4183220F20952283DF91CF91F7
:10085000089560E08EE00E94DC0061E08FE00E947D
:10086000DC0061E080E10C94DC0061E08EE00E943D
:10087000DC0061E08FE00E94DC0061E080E10C942C
:10088000DC00CF93DF93E1EEF0E08491EDECF0E05B
:10089000D491E9EBF0E0C491CC2319F181110E94CD
:1008A000B300EC2FF0E0EE0FFF1FEA56FF4FA591CB
:1008B000B491EC91ED23A9F01092D0011092D101E6
:1008C0001092D2011092D3010E9498016093CC0142
:1008D0007093CD018093CE019093CF01DF91CF91A2
:1008E00008950E9498016093D0017093D101809384
:1008F000D2019093D3018091D0019091D101A09128
:10090000D201B091D3014091CC015091CD016091C1
:10091000CE017091CF01841B950BA60BB70B809372
:10092000620290936302A0936402B0936502D6CFF3
:100930002091A901260F3327331F21323105ECF412
:100940002091EA02FC0190E080E0243069F082E02E
:100950000895A091A9012191AC0147575E4FA40FC2
:10096000B52FB11D2C930196861798F38091A9019C
:10097000680F6093A90180E0089581E008951092C6
:10098000EA0281E08093E9021092C40261E082E110
:100990000E94DC0061E083E10E94DC00E9EBF0E012
:1009A00080818E7F808380818D7F808388E48093A7
:1009B000B80085E48093BC000895CF93DF9391E065
:1009C000909388018823B9F0C091B800D091BA0003
:1009D0008091BC008A7B8093BC0060E082E10E9431
:1009E000DC0060E083E10E94DC000E94BF04D09341
:1009F000BA00C093B800DF91CF9108958F929F9273
:100A0000AF92BF92CF92DF92EF92FF920F931F931C
:100A1000CF93DF93D0911303D13208F0D7C0182FB2
:100A2000C09112030E9498016B017C018091EA023F
:100A300081116BC082E08093EA021093E9028FEF8C
:100A40008093E8021092E702D093E602A2EFB2E0B0
:100A5000E6ECF2E080E0D81391C01092C5028091DC
:100A6000C502CC0FC82BC093C5028091C40281304F
:100A700009F088C01092C4020E9498016B017C01A9
:100A80008091C5028093BB008091EC029091ED02B1
:100A9000A091EE02B091EF02892B8A2B8B2BA1F053
:100AA0000E9498010091EC021091ED022091EE025B
:100AB0003091EF026C197D098E099F0906171707FF
:100AC0002807390708F442C08091BC0083FDD8CFC5
:100AD00085EC8093BC000E9498016B017C018091A1
:100AE000EA02823009F450C08091E8028F3F09F495
:100AF0006FC08091E802803209F46CC08091E802F6
:100B0000803309F469C084E026C08091EC029091A2
:100B1000ED02A091EE02B091EF02892B8A2B8B2B74
:100B200009F484CF0E9498018090EC029090ED022D
:100B3000A090EE02B090EF026C197D098E099F091A
:100B400086169706A806B90608F070CF8091EB02CA
:100B50000E94DD0485E01092F102109213031092BE
:100B6000F002DF91CF911F910F91FF90EF90DF90F6
:100B7000CF90BF90AF909F908F9008959D9191934B
:100B80008F5F69CF85EEA5CF8091EC029091ED0249
:100B9000A091EE02B091EF02892B8A2B8B2B09F4E6
:100BA0009ECF0E9498010091EC021091ED022091DD
:100BB000EE023091EF026C197D098E099F0906172C
:100BC00017072807390708F08ACFC0CF81E0C3CFC5
:100BD00080E0C1CF82E0BFCF83E0BDCF0F931F93F2
:100BE000CF93DF938A01E901209711F4CBEDD3E095
:100BF00091E09093F002809312031092F102109210
:100C00001303E881F9810190F081E02DCE0109956F
:100C1000E881F9810190F081E02DD8016C91CE013D
:100C2000099581E00E94FE0491E0811190E0892FF6
:100C3000DF91CF911F910F9108950895E0919F0248
:100C400080919E02E81730F4F0E0E056FD4F80817D
:100C500090E008958FEF9FEF089590919F0280910B
:100C60009E022FEF3FEF981748F4E92FF0E0E0568F
:100C7000FD4F208130E09F5F90939F02C90108954E
:100C800080919E0290919F02891B990B0895CF92AB
:100C9000DF92EF92FF920F931F93CF93DF937C012C
:100CA000CB018A012091F002222389F0EB016B0134
:100CB000C40ED51ECC15DD0569F06991D701ED9103
:100CC000FC910190F081E02DC7010995F3CF642FCD
:100CD0000E949804C801DF91CF911F910F91FF905E
:100CE000EF90DF90CF900895CF93DF931F92CDB711
:100CF000DEB769832091F0022223F9F020911303DB
:100D0000203258F021E030E0FC013383228390E070
:100D100080E00F90DF91CF9108958091F102E82F4C
:100D2000F0E0EE50FD4F998190838F5F8093F10248
:100D30008093130381E090E0ECCF61E0CE01019657
:100D40000E949804F7CF90E080E00895FC010190A4
:100D50000020E9F73197AF01481B590BBC0187E12F
:100D600093E00C9419028F929F92AF92BF920F93CF
:100D70001F93CF93DF93CDB7DEB7A1970FB6F8944B
:100D8000DEBF0FBECDBF19A2423008F44AE08E018B
:100D90000F5D1F4F842E912CB12CA12CA501940125
:100DA0000E94AF19E62FB901CA01EA30F4F4E05D00
:100DB000D801EE938D01232B242B252B79F790E07E
:100DC00080E0109719F0CD010E94A606A1960FB6FB
:100DD000F894DEBF0FBECDBFDF91CF911F910F9171
:100DE000BF90AF909F908F900895E95CE1CF4F92B4
:100DF0005F926F927F928F929F92AF92BF92CF92AB
:100E0000DF92EF92FF920F931F93CF936B017C01C0
:100E1000742EAC019B010E94D01C882399F08CE4B5
:100E200091E0CF911F910F91FF90EF90DF90CF90C5
:100E3000BF90AF909F908F907F906F905F904F90FA
:100E40000C94A60646015701E894B7F82FEF3FEF40
:100E50004FE75FE7C501B4010E94D01C81110DC0AE
:100E60002FEF3FEF4FE75FE7C501B4010E94CC1AB7
:100E700018161CF480E591E0D4CF2FEF3FEF4FE739
:100E80005FE4C701B6010E94521C18161CF484E5E9
:100E900091E0C7CF2FEF3FEF4FE75FECC701B601FF
:100EA0000E94CC1A87FDF3CF20E030E0A901C701F2
:100EB000B6010E94CC1A10E000E087FF0AC06DE284
:100EC00087E193E00E94B9028C01F7FAF094F7F8F9
:100ED000F094C0E060E070E080E09FE37C1641F0B9
:100EE00020E030E040E251E40E94D11ACF5FF6CF1B
:100EF000A70196010E94EE192B013C010E944A1B9A
:100F00004B015C014AE00E94B3067C01E00EF11E39
:100F1000CC23C1F1C501B4010E94791B9B01AC0136
:100F2000C301B2010E94ED194B015C016EE287E141
:100F300093E00E94B902E80EF91EC15018F120E0BA
:100F400030E040E251E4C501B4010E945F1C2B0176
:100F50003C010E944A1B4B01B12CA12C4AE0C50167
:100F6000B4010E94B306E80EF91EC501B4010E9447
:100F7000791B9B01AC01C301B2010E94ED194B0129
:100F80005C01DBCFC701CF911F910F91FF90EF90D4
:100F9000DF90CF90BF90AF909F908F907F906F9099
:100FA0005F904F9008952F923F924F925F926F9271
:100FB0007F928F929F92AF92BF92CF92DF92EF92E9
:100FC000FF920F931F93CF93DF93CDB7DEB72E978A
:100FD0000FB6F894DEBF0FBECDBF8B836E8338870C
:100FE0002F8318018FB7F8944090C0025090C1022F
:100FF0006090C2027090C3028FBFE114F10421F42B
:101000008BEDE82E83E0F82E2B81220F2C83C42E4B
:10101000D12C342F31953D834E871A82198210E0EE
:1010200001E0C101B0E0A0E089879A87AB87BC8767
:10103000A981BA81AC15BD050CF01FC10093F00267
:10104000BB81B09312031092F10210921303D701E7
:10105000ED91FC910190F081E02D6E81C701099521
:1010600081E00E94FE040E9498014B015C01809186
:10107000EA0281116EC0BE85BD87B13210F020E258
:101080002D870093EA020093E9023FEF3093E802D4
:101090001092E7028D8581508093E6020093C5028D
:1010A0008091C5024C81842B8093C5028091C4023B
:1010B000813009F098C01092C4020E9498014B013F
:1010C0005C018091C5028093BB008091EC029091FD
:1010D000ED02A091EE02B091EF02892B8A2B8B2BAF
:1010E000A1F00E9498012091EC023091ED02409114
:1010F000EE025091EF02681979098A099B092617B7
:1011000037074807590708F445C08091BC0083FDA4
:10111000D8CF55EC5093BC000E9498014B015C0164
:101120008091EA02813009F462C08091E7029D85D6
:10113000891718F4A091E702AD87A6ECB2E0E0EAC7
:10114000F2E080E02D85821751F19D9191938F5FA0
:10115000F9CF8091EC029091ED02A091EE02B09156
:10116000EF02892B8A2B8B2B09F481CF0E949801E7
:101170002091EC023091ED024091EE025091EF028D
:10118000681979098A099B092617370748075907FB
:1011900008F06DCF8091EB020E94DD041D86109255
:1011A0009F023D8530939E02D701ED91FC91008412
:1011B000F185E02DC7010995892B09F453C021144D
:1011C0003104B9F5D701ED91FC910284F385E02D4E
:1011D000C7010995EF81F885E10FF11D17FDFA951B
:1011E00080831F5FE1CF85EE8093BC0095CF809117
:1011F000EC029091ED02A091EE02B091EF02892BEA
:101200008A2B8B2B09F48CCF0E9498012091EC0241
:101210003091ED024091EE025091EF026819790988
:101220008A099B09261737074807590708F078CF1E
:10123000B1CF2FB7F8948091C0029091C102A091D4
:10124000C202B091C3022FBF84199509A609B7093C
:1012500029853A854B855C8582179307A407B507D6
:1012600008F4B0CF49815A814C0D5D1D5A834983E2
:101270005E858D81580F5E87DBCE21143104F9F035
:101280008FB7F8944091C0025091C1026091C202A0
:101290007091C3028FBF4419550966097709C101CE
:1012A000B0E0A0E0481759076A077B0740F0812F9C
:1012B000012E000C990B8C159D050CF41FEF812F4E
:1012C0002E960FB6F894DEBF0FBECDBFDF91CF9143
:1012D0001F910F91FF90EF90DF90CF90BF90AF9054
:1012E0009F908F907F906F905F904F903F902F9046
:1012F00008957F928F929F92AF92BF92CF92DF928A
:10130000EF92FF920F931F93CF93DF9300D0CDB74F
:10131000DEB7A82E962E742E822EB02E08EE13E085
:101320009E012E5F3F4F41E00E94D3078823C1F109
:10133000872D8819990BAC014F5F5F4F81E090E0DA
:1013400002C0880F991F8A94E2F70197042E01C00A
:10135000880F0A94EAF72B2D01C0220F4A95EAF76D
:10136000B82EB0949A81B92282238B298A838983EB
:101370009701AE014F5F5F4F692D8A2D0E94EE05E8
:101380000F900F90DF91CF911F910F91FF90EF90F1
:10139000DF90CF90BF90AF909F908F907F900895F7
:1013A00080E0EECF85ED8093BC008091EC029091BF
:1013B000ED02A091EE02B091EF020796A11DB11DC2
:1013C00023E0B695A795979587952A95D1F7209113
:1013D000BC0024FD03C01092EA0208954091EC0283
:1013E0005091ED026091EE027091EF02452B462B79
:1013F000472B69F30097A105B10541F02AE22A9530
:10140000F1F700C00197A109B109E1CF8091EB028A
:101410000C94DD041F920F920FB60F9211242F939C
:101420003F934F935F936F937F938F939F93AF936C
:10143000BF93EF93FF9380919D028F5F80939D02F6
:10144000E0919C0220919D028E2F90E0FC01EE0F16
:10145000FF1FE80FF91FEF57FD4F8181E0919C02BC
:1014600082131DC08E2F90E0FC01EE0FFF1FE80FCE
:10147000F91FEF57FD4F82818093B200FF91EF91EA
:10148000BF91AF919F918F917F916F915F914F919C
:101490003F912F910F900FBE0F901F9018952091A4
:1014A0009D028E2F90E0FC01EE0FFF1FE80FF91F49
:1014B000EF57FD4F8181821708F7E0919C028E2F34
:1014C00090E0FC01EE0FFF1FE80FF91FEF57FD4FF3
:1014D000808185FF10C0E0919C028E2F90E0FC017E
:1014E000EE0FFF1FE80FF91FEF57FD4F808160E0FF
:1014F0008F710E94DC0080919C028F5F80939C0220
:1015000010929D021092B20080919C02882319F1E2
:1015100080919C028930F8F4E0919C028E2F90E03B
:10152000FC01EE0FFF1FE80FF91FEF57FD4F808101
:1015300085FFA4CFE0919C028E2F90E0FC01EE0F7E
:10154000FF1FE80FF91FEF57FD4F808161E08F719A
:101550000E94DC0093CF80919C02893008F48ECFEA
:1015600010929C028BCF1F920F920FB60F921124F4
:101570002F933F934F935F936F937F938F939F939B
:10158000AF93BF93CF93EF93FF9399B180911603DD
:10159000C0918002C923282F2095C22320917D026B
:1015A0008223292F20958223C82B90931603C4FFF2
:1015B00005C0E0911801F09119010995C5FF05C01A
:1015C000E0911A01F0911B010995C6FF05C0E09159
:1015D0001C01F0911D010995C7FF05C0E0911E0196
:1015E000F0911F010995C0FF05C0E0912001F09125
:1015F00021010995C1FF05C0E0912201F09123016D
:101600000995C2FF05C0E0912401F09125010995DB
:10161000C3FF05C0E0912601F09127010995FF91D4
:10162000EF91CF91BF91AF919F918F917F916F91EA
:101630005F914F913F912F910F900FBE0F901F9090
:1016400018951F920F920FB60F9211242F933F936C
:101650008F939F93AF93BF938091C0029091C102EB
:10166000A091C202B091C3023091760223E0230F11
:101670002D3758F50196A11DB11D20937602809358
:10168000C0029093C102A093C202B093C3028091A2
:10169000770290917802A0917902B0917A02019636
:1016A000A11DB11D8093770290937802A0937902D7
:1016B000B0937A02BF91AF919F918F913F912F91FB
:1016C0000F900FBE0F901F90189526E8230F0296DB
:1016D000A11DB11DD2CF1F920F920FB60F921124F0
:1016E0002F933F934F935F936F937F938F939F932A
:1016F000AF93BF93EF93FF9387E193E00E9497022C
:10170000FF91EF91BF91AF919F918F917F916F91D9
:101710005F914F913F912F910F900FBE0F901F90AF
:1017200018951F920F920FB60F9211242F938F933B
:101730009F93EF93FF93E0912703F091280380811B
:10174000E0912D03F0912E0382FD1BC090818091CA
:1017500030038F5F8F7320913103821741F0E09146
:101760003003F0E0E95EFC4F958F80933003FF91EA
:10177000EF919F918F912F910F900FBE0F901F901F
:1017800018958081F4CF1F920F920FB60F921124FB
:101790002F933F934F935F936F937F938F939F9379
:1017A000AF93BF93EF93FF938091B900887F80360A
:1017B00009F44AC0F0F5883209F4A7C018F5803161
:1017C00009F49BC0B8F4882309F4F9C0883009F4FF
:1017D00094C0FF91EF91BF91AF919F918F917F91B5
:1017E0006F915F914F913F912F910F900FBE0F908E
:1017F0001F901895883109F488C0803251F7809382
:10180000E80214C0803409F49DC040F48033B9F379
:101810008833F9F68093E80285ECB0C0803509F48E
:1018200085C0883509F496C0883499F60E94D2099B
:10183000D0CF883909F48CC038F5883729F050F4B6
:10184000883611F0803729F683E08093EA021092FF
:10185000CB0157C0883809F47BC0803919F0803833
:1018600009F0B7CF8091CB01803208F071C0E091D0
:10187000CB0181E08E0F8093CB018091BB00F0E023
:10188000E555FE4F80833DC0803B39F0E0F4803A5F
:1018900009F479C0883A09F09CCF84E08093EA0289
:1018A0001092AA011092A901E091D401F091D50102
:1018B00009958091A90181110FC081E08093A90150
:1018C0001092890109C0803C09F4A6CF883C09F434
:1018D000A3CF883B09F07DCFE091AA0181E08E0F74
:1018E0008093AA01F0E0E757FE4F80818093BB0010
:1018F0009091AA018091A90129C08091C50280938D
:10190000BB0085EC8093BC0064CF9091E70280918E
:10191000E602981758F5E091E70281E08E0F809378
:10192000E702F0E0EA53FD4F8081E9CFE091E70262
:1019300081E08E0F8093E7028091BB00F0E0EA53D4
:10194000FD4F80839091E7028091E6029817C8F2DC
:1019500085E8D8CFE091E70281E08E0F8093E7021F
:101960008091BB00F0E0EA53FD4F80838091E90253
:1019700081115CCF81E08093C40284EA8093BC0033
:101980001092EA0226CF85EC8093BC001092EA0206
:101990008091CB01803230F4E091CB01F0E0E5554D
:1019A000FE4F10826091CB0170E0E091D601F09182
:1019B000D7018BEA91E009951092CB010ACF1092E2
:1019C000E80234CF10921A031092190388EE93E0C4
:1019D000A0E0B0E080931B0390931C03A0931D0331
:1019E000B0931E038CE291E0909318038093170349
:1019F00085EC90E0909324038093230384EC90E0A3
:101A0000909326038093250380EC90E09093280325
:101A10008093270381EC90E090932A03809329031D
:101A200082EC90E090932C0380932B0386EC90E063
:101A300090932E0380932D03109230031092310364
:101A400010923203109233038091B403883078F5FA
:101A50008F5F8093B4038093B50388E68093B603C9
:101A60001092B8031092B70388EF9AE2A0E0B0E0BA
:101A70008093C7039093C803A093C903B093CA038C
:101A80001092DE031092DD0388EE93E0A0E0B0E058
:101A90008093DF039093E003A093E103B093E2030C
:101AA0008EE391E09093DC038093DB030895109222
:101AB000B503D3CFCF93DF93CDB7DEB762970FB621
:101AC000F894DEBF0FBECDBF789484B5826084BD2C
:101AD00084B5816084BD85B5826085BD85B5816032
:101AE00085BD80916E00816080936E0010928100B0
:101AF000809181008260809381008091810081606B
:101B0000809381008091800081608093800080912B
:101B1000B10084608093B1008091B00081608093B7
:101B2000B00080917A00846080937A0080917A007E
:101B3000826080937A0080917A00816080937A003D
:101B400080917A00806880937A001092C100109290
:101B500039021092380210929F0210929E02109247
:101B6000F102109213030E94BF0487E192E0909368
:101B7000D5018093D40188E192E09093D7018093BE
:101B8000D6010E94BF04E090B703F090B80301E0D3
:101B900023E042E06BE68091B6030E947909E09071
:101BA000B703F090B80300E022E044E06BE18091DD
:101BB000B6030E947909E090B703F090B80322E0E1
:101BC00044E06CE18091B6030E947909A090B703CC
:101BD000B090B803D090B603750108EE13E09E01F3
:101BE0002E5F3F4F41E06BE68D2D0E94D3078A8127
:101BF0008F7B8A8389839501AE014F5F5F4F6BE6D0
:101C00008D2D0E94EE0562E070E080E090E00E9481
:101C1000BD0161E087E00E940A0161E086E00E9468
:101C20000A0161E08DE00E940A0161E08CE00E94FF
:101C30000A0161E089E00E940A0161E08AE00E94F5
:101C40000A0161E088E00E940A0160E087E00E94EA
:101C5000DC0061E086E00E94DC0061E08DE00E9433
:101C6000DC0060E08CE00E94DC0061E088E00E9423
:101C7000DC0070E060E089E00E943B0170E060E021
:101C80008AE00E943B0160E082E00E940A0160E07D
:101C900084E00E940A018FEE91E0909325018093E9
:101CA00024010091800210917D0284E00E94A30033
:101CB00083E092E0909319018093180104610093EE
:101CC0008002146110937D0280E10E94A30061E014
:101CD0008EE00E940A0161E08FE00E940A0161E04B
:101CE00080E10E940A018091D801811121C0E1E8C0
:101CF000F2E09BE087E594838583339622E0E9391F
:101D0000F207C9F78EE38093820210929C02109230
:101D10009D02109270001092B00082E08093B1009A
:101D20001092B20081E087BB809370008093D8014D
:101D30008091B5038823A1F061E08BE00E940A0145
:101D4000E091B5038E2F90E0FC01EE0FFF1FE80F2E
:101D5000F91FEF57FD4F8081807E8B60806280830A
:101D600061E081E10E940A0161E083E00E940A01D2
:101D700060E085E00E940A0181E494E090931B01F9
:101D800080931A018091800280628093800280910A
:101D90007D02806280937D0280E20E94A30084E144
:101DA00090E00E94F0030E94290461E081E10E941A
:101DB000DC0064E670E080E090E00E94BD0160E03D
:101DC00081E10E94DC00E0912703F091280382E08A
:101DD0008083E0912303F09124031082E091250396
:101DE000F091260380E1808310922F03E0912B0372
:101DF000F0912C0386E08083E0912903F0912A037F
:101E0000808180618083E0912903F0912A038081A1
:101E100088608083E0912903F0912A0380818068A3
:101E20008083E0912903F0912A0380818F7D808354
:101E300066E970E080E090E00E94BD0158E0252E48
:101E4000312C8FB7F8944091C0025091C10260913B
:101E5000C2027091C3028FBF80917202909173028F
:101E6000A0917402B0917502892B8A2B8B2B91F073
:101E700080916E0290916F02A0917002B0917102F8
:101E80000596A11DB11D481759076A077B0710F475
:101E90000C94B31840936E0250936F0260937002DB
:101EA00070937102E090B703F090B80308EE13E06E
:101EB00029EB33E04EE06BE38091B6030E94D30739
:101EC0008091B9039091BA03982789279827909316
:101ED000E4018093E3012091BB033091BC033227DE
:101EE000232732273093E2012093E1018090BD0344
:101EF0009090BE039824892498249092E0018092C7
:101F0000DF018091C1039091C20398278927982708
:101F10009093DE018093DD014091C3035091C4038F
:101F20005427452754275093DC014093DB0140910F
:101F3000C5035091C6035427452754275093DA010F
:101F40004093D901A901330F660B770B4B835C8358
:101F50006D837E83409300025093010260930202DE
:101F600070930302092C000CAA08BB088092FC01A4
:101F70009092FD01A092FE01B092FF019C01990F89
:101F8000440B550B2F83388749875A872093F801D4
:101F90003093F9014093FA015093FB01409166029E
:101FA0005091670260916802709169024B875C876B
:101FB0006D877E876AE077ED83EA9BE36093660234
:101FC000709367028093680290936902E0903802F0
:101FD000F0903902F092EE01E092ED01E091EF0114
:101FE000E150EF3008F050C6F0E0E750F04F0C94AD
:101FF000E0190810F1130E1452147C14C214DB14EF
:10200000FD1415153D1554157C15BD15EA151E1644
:1020100072E1E716F10411F01092EF014090F40123
:102020005090F5016090F6017090F701C090F001BA
:10203000D090F101E090F201F090F3011092F401E0
:102040001092F5011092F6011092F7011092F00132
:102050001092F1011092F2011092F30120E030E0B1
:10206000A90160911C0270911D0280911E02909145
:102070001F020E94CC1A87FF10C092E0491651043B
:10208000610490E879060CF460C6709460945094F2
:102090004094411C511C611C711C20E030E0A901DE
:1020A000609118027091190280911A0290911B029E
:1020B0000E94CC1A87FF10C0A2E0CA16D104E10426
:1020C000A0E8FA060CF448C6F094E094D094C094CA
:1020D000C11CD11CE11CF11C609156027091570289
:1020E000809158029091590222E030E040E050E0A7
:1020F0000E9490192F87388B498B5A8BC301B201EC
:1021000022E030E040E050E00E9490198F859889ED
:10211000A989BA89820F931FA41FB51F0097A10533
:10212000E0ECBE070CF41FC60097A10520E4B2073F
:102130000CF01EC6880F991FAA1FBB1F8093560262
:1021400090935702A0935802B093590260915202A3
:1021500070915302809154029091550222E030E038
:1021600040E050E00E94901929013A01C701B601F0
:1021700022E030E040E050E00E949019420E531EF1
:10218000641E751E41145104610430EC73060CF496
:10219000F4C541145104610440E474060CF0F3C525
:1021A000440C551C661C771C4092520250925302FC
:1021B0006092540270925502C501B4010E947B1BCB
:1021C0006B017C016B817C818D819E810E947B1BD8
:1021D000A70196010E946D1A6B017C016F817885C1
:1021E00089859A850E947B1B20E030E043E053E420
:1021F0000E94D11A2AE037ED43EA5BE30E945F1C9C
:1022000020910C0230910D0240910E0250910F026C
:102210000E94EE1926E73FE44EE75FE30E945F1C51
:102220004B015C0123E333E345E652E4C701B60109
:102230000E945F1C20ED34E448ED5BE30E945F1CCC
:102240009B01AC01C501B4010E94EE196093040228
:1022500070930502809306029093070260930C022C
:1022600070930D0280930E0290930F02209104014F
:102270003091050140910601509107010E94ED192E
:102280004B015C012AE037ED43EA5BE30E945F1CEF
:1022900020911002309111024091120250911302CC
:1022A0000E94EE196B017C0120E030E040EC5FE31E
:1022B0000E94CC1A18160CF46DC520E030E040ECFA
:1022C0005FEBC701B6010E94521C87FD6AC5C09230
:1022D0001002D0921102E0921202F0921302C09208
:1022E0000802D0920902E0920A02F0920B022091B9
:1022F00008013091090140910A0150910B01C5017B
:10230000B4010E945F1C4B015C01209100013091DF
:1023100001014091020150910301C701B6010E94E1
:102320005F1C9B01AC01C501B4010E94EE196093D2
:102330001402709315028093160290931702009175
:102340005A0210915B0220915C0230915D02012BD8
:10235000022B032B09F02CC510921C0210921D02B7
:1023600010921E0210921F0210921802109219026F
:1023700010921A0210921B026B857C858D859E85BA
:10238000609366027093670280936802909369027B
:1023900080911401909115010E94F003C0901C02DD
:1023A000D0901D02E0901E02F0901F0220E030E06D
:1023B000A901C701B6010E94521C87FD70C560E0EB
:1023C00087E00E94DC0061E086E00E94DC0020E003
:1023D00030E0A901C701B6010E94521C18160CF08A
:1023E00064C5C701B6010E94431B89E00E943B01FE
:1023F000C0901802D0901902E0901A02F0901B02CF
:1024000020E030E0A901C701B6010E94521C87FDFF
:1024100050C560E08DE00E94DC0061E08CE00E942D
:10242000DC0020E030E0A901C701B6010E94521C87
:1024300018160CF044C5C701B6010E94431B8AE080
:102440000E943B018091720290917302A0917402EC
:10245000B09175028B839C83AD83BE8380FD44C0A5
:102460004090660250906702609068027090690226
:102470008090340290903502A0903602B0903702DE
:1024800081149104A104B10409F01DC510922C021D
:1024900010922D0210922E0210922F0210923002F2
:1024A00010923102109232021092330220E030E09A
:1024B00040E951E460913002709131028091320222
:1024C000909133020E945F1C60932002709321025E
:1024D00080932202909323024092660250926702F8
:1024E00060926802709269028B819C81AD81BE818D
:1024F00083709927AA27BB27892B8A2B8B2B61F402
:1025000061E083E00E94DC0083E290E00197F1F754
:1025100060E083E00E94DC006B817C818D819E8184
:102520002AE030E040E050E00E94AF19672B682BB2
:10253000692B09F0C9C560915602709157028091CC
:1025400058029091590222E030E040E050E00E94B1
:10255000901969017A016091520270915302809141
:1025600054029091550222E030E040E050E00E9499
:102570009019C20ED31EE41EF51E60E070E080E0EC
:1025800090E8C114D104E104B0ECFB0684F06FEFD5
:102590007FEF8FEF9FE7C114D104E104E0E4FE0672
:1025A00034F4C701B601660F771F881F991FC090CA
:1025B0004202D0904302E0904402F09045020E9413
:1025C0007B1BA70196010E94ED192AE939E949E927
:1025D0005EE30E945F1CA70196010E94EE196B0149
:1025E0007C01C0924202D0924302E0924402F092F7
:1025F00045028090460290904702A0904802B09019
:102600004902A501940160914E0270914F028091A0
:102610005002909151020E94ED192DEC3CEC4CE4DB
:102620005DE30E945F1CA50194010E94EE199B01CD
:10263000AC012093460230934702409348025093E6
:1026400049021092560210925702109258021092AC
:102650005902109252021092530210925402109298
:102660005502C701B6010E94ED192B013C012DEC6A
:102670003CEC4CE45DE30E945F1C20914A023091E7
:102680004B0240914C0250914D020E94EE196B0199
:102690007C0120E030E843E653E40E94CC1A18168F
:1026A0000CF4DAC420E030E843E653ECC701B6018D
:1026B0000E94521C87FDD8C4C0924A02D0924B029D
:1026C000E0924C02F0924D02C0923E02D0923F0244
:1026D000E0924002F09241022091100130911101EC
:1026E00040911201509113012F83388749875A87EF
:1026F00080900C0190900D01A0900E01B0900F0100
:10270000C301B2010E945F1C2B013C01A70196018D
:10271000C501B4010E945F1C9B01AC01C301B20161
:102720000E94EE1960933A0270933B0280933C0240
:1027300090933D0260916202709163028091640205
:10274000909165020E947B1B26E933E44BE85CE331
:102750000E945F1C60935E0270935F028093600230
:102760009093610280916A0290916B028230910590
:1027700009F495C40CF080C4019709F48DC40E943B
:10278000350460E081E10E94DC0087E193E00E9473
:102790007702181619060CF097C487E193E00E949F
:1027A0005502815691098531910508F08DC4FC01CF
:1027B000E452FC4E0C94E0195E18C318C618C918F0
:1027C000CC18CF18D218D518DA18DC18E118F4187C
:1027D000FF181619251936193F1944195B196A197A
:1027E000811981E1E816F10419F00E94880314CCE4
:1027F00020E030E0A9016091E5017091E60180914F
:10280000E7019091E8010E94CC1A18160CF40AC155
:102810000E9488030E94D60385E096C00E9461034F
:10282000882309F4F9CB94E0E916F10409F4F6CB16
:10283000A3E0EA16F10421F40E947C038EE084C038
:10284000B1E0EB16F10431F40E94D6030E94AF030D
:1028500084E07AC0E2E0EE16F10421F40E946F03F6
:102860008FE072C0E114F104A1F40E94A2030E945F
:10287000C9032DEC3CEC4CE45FE32093E50130937D
:10288000E6014093E7015093E8010E94E3038CE0E6
:102890005BC038E0E316F10409F091C10E9488039F
:1028A0008DE052C00E946103882309F4B5CB51E04A
:1028B000E516F10409F4B2CB63E0E616F10409F47D
:1028C000BBCF72E0E716F10449F284E0E816F104A8
:1028D00031F40E94E3030E94BC0383E035C0E1149D
:1028E000F10419F298E0E916F104C1F2A5E0EA1644
:1028F000F10409F093CB68C1B1E1EB16F10409F0E2
:102900008BCBC0905E02D0905F02E0906002F090AE
:10291000610220E030E040EF51E4C701B6010E94BF
:10292000CC1A1816A4F00E9491030E94E30320E041
:1029300030E040E050E42093E5013093E60140931D
:10294000E7015093E80186E08093EF0167CB20E038
:1029500030E048E452E4C701B6010E94CC1A1816D0
:102960000CF45CCB0E947C038DEC9CECACE4BEE3ED
:102970008093E5019093E601A093E701B093E8010D
:1029800082E0E2CF31E1E316F10419F00E949103F5
:1029900043CB20E030E0A9016091E5017091E601B0
:1029A0008091E7019091E8010E94CC1A1816D4F1A9
:1029B0000E949103D7CF0E946103882309F42CCB96
:1029C000EF2809F42BCB41E050E060E070E0409349
:1029D0005A0250935B0260935C0270935D0260E563
:1029E00070E080E090E06093140170931501809393
:1029F00016019093170189E0A7CF71E1E716F10462
:102A000009F00ACB20E030E0A9016091E501709166
:102A1000E6018091E7019091E8010E94CC1A181616
:102A20000CF0F8CE0E942603F9CA0E9461038823A5
:102A300009F4F2CA83E0E816F10409F4FDCE91E04E
:102A4000E916F10409F400CFA2E0EA16F10409F452
:102A500005CFB4E0EB16F10409F43BCFE114F10427
:102A600009F403CFE8E0EE16F10409F417CF25E0EE
:102A7000E216F10409F0D2CAA7C032E1E316F1046C
:102A800009F0CACA20E030E0A9016091E501709127
:102A9000E6018091E7019091E8010E94CC1A181696
:102AA0000CF4C0CF81E050CF0E946103882309F469
:102AB000B3CA45E0E416F10409F4B0CA53E0E516E0
:102AC000F10409F4B9CE61E0E616F10409F4BCCED4
:102AD00072E0E716F10409F4C1CE84E0E816F104CF
:102AE00009F4F7CEE114F10409F4BFCE98E0E91639
:102AF000F10409F093CAD2CE0E946103882309F43D
:102B00008BCA20E030E0A9016091E5017091E601F7
:102B10008091E7019091E8010E94CC1A18160CF4FC
:102B200081CF0E94910310925A0210925B02109280
:102B30005C0210925D021092F4011092F501109265
:102B4000F6011092F7011092F0011092F10110922B
:102B5000F2011092F3011092560210925702109255
:102B6000580210925902109252021092530210927F
:102B700054021092550287E0E7CE0E946103882339
:102B800009F44ACAA8E0EA16F10409F447CAB3E016
:102B9000EB16F10409F450CEE1E0EE16F10409F46D
:102BA00053CE22E0E216F10409F458CE34E0E316E5
:102BB000F10409F48ECEE114F10409F456CE45E097
:102BC000E416F10409F02ACA0E94A2030E949103AC
:102BD0008BE0BACE0E946103882309F406CE53E04D
:102BE000E516F10409F41ACA61E0E616F10419F4D5
:102BF0000E94880329CE72E0E716F10419F40E94BE
:102C000088032CCE84E0E816F10419F40E948803AE
:102C100060CEE114F10419F40E94880326CE38E056
:102C2000E316F10419F40E94880338CE45E0E41657
:102C3000F10409F0F3C90E948803C6CF0E94610322
:102C4000882309F4D2CD52E0E516F10409F4E6C96F
:102C500063E0E616F10419F40E948803EDCD71E0FB
:102C6000E716F10429F284E0E816F10479F2E114A0
:102C7000F10491F298E0E916F104A9F2A5E0EA1650
:102C8000F10409F0CBC9D7CF0E9461038823E1F09A
:102C9000EF2809F4B0CE21E030E040E050E020938E
:102CA0005A0230935B0240935C0250935D0240E510
:102CB00050E060E070E04093140150931501609380
:102CC00016017093170197CE51E1E516F104E1F476
:102CD0000E94910364E070E080E090E060936A02FB
:102CE00070936B0280936C0290936D0280E090E091
:102CF000A0E8BFE38093E5019093E601A093E7018C
:102D0000B093E80188E020CE72E1E716F10409F003
:102D100085C90E94910384E090E0A0E0B0E0809338
:102D20006A0290936B02A0936C02B0936D0280E0F4
:102D300090E0A0E8BFE38093E5019093E601A093C3
:102D4000E701B093E8018AE0FFCD44244A94542C73
:102D5000642C4FE7742EA1C9CC24CA94DC2CEC2C33
:102D60003FE7F32EB9C980E090E0A0E0B0E8E6C903
:102D70008FEF9FEFAFEFBFE7E1C9412C512C612CE2
:102D800080E8782E11CA44244A94542C642C0FE70E
:102D9000702E0ACAC12CD12C10ECE12E1FE3F12EAB
:102DA00096CAC12CD12CB0ECEB2EBFEBFB2E8FCAF8
:102DB00020913A0230913B0240913C0250913D02F9
:102DC0000E94EE194B015C014090200250902102BC
:102DD0006090220270902302A30192010E94ED19DB
:102DE0006B017C01A3019201C501B4010E94EE199F
:102DF0004B015C0120E030E04FE753E4C701B6012E
:102E00000E94CC1A18167CF120E030E04FE753EC1A
:102E1000C701B6010E94521C87FD2CC0C0921C0243
:102E2000D0921D02E0921E02F0921F0220E030E0DC
:102E30004FE753E4C501B4010E94CC1A18160CF1F7
:102E400020E030E04FE753ECC501B4010E94521C72
:102E500087FD1EC08092180290921902A0921A0259
:102E6000B0921B0289CAC12CD12CAFE7EA2EA3E491
:102E7000FA2ED4CFC12CD12CFFE7EF2EF3ECFF2E8E
:102E8000CDCF812C912CEFE7AE2EE3E4BE2EE2CF26
:102E9000812C912C7FE7A72E73ECB72EDBCF61E05E
:102EA00087E00E94DC0060E08FCAC701B60190583D
:102EB0009ACA61E08DE00E94DC0060E0AFCAC70101
:102EC000B6019058BACA80912C0290912D02A0911F
:102ED0002E02B0912F02892B8A2B8B2B09F06CC00C
:102EE00021E030E040E050E020932C0230932D02AE
:102EF00040932E0250932F02609156027091570218
:102F000080915802909159020E947B1B6B017C01B9
:102F10006091520270915302809154029091550237
:102F20000E947B1B9B01AC01C701B6010E94EE19F8
:102F30006B017C0120E030E0A9010E94521C1816B0
:102F400024F0F7FAF094F7F8F094C0922402D092AB
:102F50002502E0922602F092270220E030E0A9014B
:102F6000C701B6010E94CC1A882309F45AC0A701F0
:102F7000960160E070E08CE592E40E94D11A6B014A
:102F80007C0120E030E040EA50E40E94CC1A1816A0
:102F90000CF447C020E030E040E05FE3C701B60139
:102FA0000E94521C87FD44C0C0922802D092290280
:102FB000E0922A02F0922B0260913002709131026D
:102FC000809132029091330220912802309129029F
:102FD00040912A0250912B028A9489288A288B28B2
:102FE00009F450580E94EE196B017C0120E030E09A
:102FF00040EA50E40E94CC1A181604F120E030E0B8
:1030000040EA50ECC701B6010E94521C87FD1DC06A
:10301000C0923002D0923102E0923202F09233023A
:1030200045CAC12CD12C60EAE62E60E4F62EBCCF56
:10303000C12CD12CE12C5FE3F52EB6CFC12CD12CC5
:1030400040EAE42E40E4F42EE3CFC12CD12C30EA48
:10305000E32E30ECF32EDCCFC12C90E8D92E93E692
:10306000E92E93E4F92E28CBC12C80E8D82E83E6F4
:10307000E82E83ECF82E20CB8330910591F060E0B0
:10308000049709F07CCB8EE00E94DC0060E08FE0CA
:103090000E94DC0061E00EC00E94290472CB61E056
:1030A000F2CF61E08EE00E94DC0061E08FE00E94E0
:1030B000DC0060E080E10E94DC0063CB81E090E016
:1030C00090933902809338026B817C818D819E813F
:1030D00024E630E040E050E00E94AF19672B682BF7
:1030E000692B71F588E591E00E94A60660910401C4
:1030F00070910501809106019091070142E00E94C4
:10310000F70687E691E00E94A60660916202709140
:10311000630280916402909165020E947B1B26E904
:1031200033E44BE85CE30E945F1C42E00E94F70638
:103130008BE791E00E94A6068EE791E00E94A6062A
:103140008091720290917302A0917402B091750205
:103150000196A11DB11D8093720290937302A093FA
:103160007402B093750280E090E0892B11F40C9406
:10317000210F0E948302882311F40C941E0F0E94D9
:1031800000000C941E0F82E090E09ACF83E090E064
:1031900097CF84E090E094CF85E090E091CF81E1FB
:1031A00090E08ECF82E190E08BCF61E081E10E94E0
:1031B000DC008ACF60E0FACF109239021092380218
:1031C00083CF2DEC3CEC4CE45EE36F817885898500
:1031D0009A850E94EE1960931001709311018093FB
:1031E00012019093130170CF2DEC3CEC4CE45EE3A4
:1031F0006F81788589859A850E94ED19ECCF20E052
:1032000030E040E85FE3609108017091090180912E
:103210000A0190910B010E94EE19609308017093CE
:10322000090180930A0190930B014ECF20E030E01A
:1032300040E85FE3609108017091090180910A0103
:1032400090910B010E94ED19E8CF2FE832EC45EF89
:103250005CE3C501B4010E94EE1960930C01709308
:103260000D0180930E0190930F012ECF2FE832ECC9
:1032700045EF5CE3C501B4010E94ED19EECF309239
:1032800039022092380220CF20E030E040E85FE3AE
:1032900060910401709105018091060190910701F0
:1032A0000E94ED196093040170930501809306015B
:1032B0009093070109CF20E030E040E85FE36091A0
:1032C00004017091050180910601909107010E940F
:1032D000EE19E8CF2FE832EC45EF5CE36091000196
:1032E0007091010180910201909103010E94EE19F9
:1032F0006093000170930101809302019093030198
:10330000E3CE2FE832EC45EF5CE360910001709171
:10331000010180910201909103010E94ED19E8CF13
:10332000052E97FB1EF400940E94A71957FD07D0A5
:103330000E94AF1907FC03D04EF40C94A7195095C6
:103340004095309521953F4F4F4F5F4F0895909591
:103350008095709561957F4F8F4F9F4F0895A1E2A3
:103360001A2EAA1BBB1BFD010DC0AA1FBB1FEE1FFF
:10337000FF1FA217B307E407F50720F0A21BB30B4A
:10338000E40BF50B661F771F881F991F1A9469F7C6
:1033900060957095809590959B01AC01BD01CF0122
:1033A0000895A29FB001B39FC001A39F700D811D1E
:1033B0001124911DB29F700D811D1124911D08953E
:1033C000EE0FFF1F0590F491E02D09940E94D11992
:1033D000B7FF0895821B930B08955058BB27AA2767
:1033E0000E94051A0C94181C0E940A1C38F00E94B6
:1033F000111C20F039F49F3F19F426F40C94E01BC3
:103400000EF4E095E7FB0C94DA1BE92F0E94291CCF
:1034100058F3BA17620773078407950720F079F409
:10342000A6F50C944B1C0EF4E0950B2EBA2FA02D94
:103430000B01B90190010C01CA01A0011124FF2761
:10344000591B99F0593F50F4503E68F11A16F0405C
:10345000A22F232F342F4427585FF3CF469537955B
:103460002795A795F0405395C9F77EF41F16BA0B20
:10347000620B730B840BBAF09150A1F0FF0FBB1FCE
:10348000661F771F881FC2F70EC0BA0F621F731F17
:10349000841F48F4879577956795B795F7959E3F74
:1034A00008F0B0CF9395880F08F09927EE0F979505
:1034B000879508950E940A1C60F080E891E009F465
:1034C0009EEF0E94111C28F040E851E071F45EEF7D
:1034D0000CC00C94E01B0C944B1CE92FE0780E946C
:1034E000291C40F3092E052AB1F326173707480790
:1034F000590738F00E2E07F8E02569F0E025E06462
:103500000AC0EF6307F8009407FADB01B9019D01D7
:10351000DC01CA01AD01EF930E94E81A0E94181C59
:103520000E949D1A5F91552339F02BED3FE049E44D
:1035300050FD49EC0C94EE190895DF93DD27B92F67
:10354000BF7740E85FE31616170648075B0718F4D5
:10355000D92F0E94571C9F938F937F936F930E9444
:10356000CC1CE8E6F0E00E94E31B0E94181C2F919F
:103570003F914F915F910E94721CDD2351F0905852
:10358000A2EA2AED3FE049EC5FE3D0785D270E9494
:10359000051ADF910C94181C0E94B61B08F481E0F8
:1035A00008950E94E51A0C94181C0E94111C58F0F2
:1035B0000E940A1C40F029F45F3F29F00C94DA1BAA
:1035C00051110C944C1C0C94E01B0E94291C68F3B4
:1035D0009923B1F3552391F3951B550BBB27AA27CC
:1035E00062177307840738F09F5F5F4F220F331F06
:1035F000441FAA1FA9F335D00E2E3AF0E0E832D0CE
:1036000091505040E695001CCAF72BD0FE2F29D0D0
:10361000660F771F881FBB1F261737074807AB07A2
:10362000B0E809F0BB0B802DBF01FF2793585F4F17
:103630003AF09E3F510578F00C94DA1B0C944C1C28
:103640005F3FE4F3983ED4F3869577956795B795F9
:10365000F7959F5FC9F7880F911D9695879597F904
:103660000895E1E0660F771F881FBB1F621773077D
:103670008407BA0720F0621B730B840BBA0BEE1F92
:1036800088F7E09508950E944A1B6894B1110C9444
:103690004C1C08950E94311C88F09F5798F0B92F58
:1036A0009927B751B0F0E1F0660F771F881F991F77
:1036B0001AF0BA95C9F714C0B13091F00E944B1CB2
:1036C000B1E008950C944B1C672F782F8827B85FC2
:1036D00039F0B93FCCF3869577956795B395D9F7CF
:1036E0003EF490958095709561957F4F8F4F9F4FD9
:1036F0000895E89409C097FB3EF4909580957095E5
:1037000061957F4F8F4F9F4F9923A9F0F92F96E92D
:10371000BB279395F695879577956795B795F111A2
:10372000F8CFFAF4BB0F11F460FF1BC06F5F7F4F3F
:103730008F4F9F4F16C0882311F096E911C0772351
:1037400021F09EE8872F762F05C0662371F096E85A
:10375000862F70E060E02AF09A95660F771F881F29
:10376000DAF7880F9695879597F90895990F0008CD
:10377000550FAA0BE0E8FEEF16161706E807F90743
:10378000C0F012161306E407F50798F0621B730BDE
:10379000840B950B39F40A2661F0232B242B252B5F
:1037A00021F408950A2609F4A140A6958FEF811D02
:1037B000811D089597F99F6780E870E060E00895A3
:1037C0009FEF80EC0895DF93CF931F930F93FF92A9
:1037D000EF92DF927B018C01689406C0DA2EEF0134
:1037E0000E94721CFE01E894A591259135914591A6
:1037F0005591A6F3EF010E94051AFE019701A80159
:10380000DA9469F7DF90EF90FF900F911F91CF91BD
:10381000DF91089500240A94161617061806090663
:10382000089500240A941216130614060506089536
:10383000092E0394000C11F4882352F0BB0F40F4BE
:10384000BF2B11F460FF04C06F5F7F4F8F4F9F4FFE
:10385000089557FD9058440F551F59F05F3F71F080
:103860004795880F97FB991F61F09F3F79F08795E7
:103870000895121613061406551FF2CF4695F1DF70
:1038800008C0161617061806991FF1CF8695710500
:10389000610508940895E894BB2766277727CB0134
:1038A00097F908950E94B61B08F48FEF08959B01C5
:1038B000AC0160E070E080E89FE30C94D11A0E94B4
:1038C000721C0C94181C0E940A1C38F00E94111CD7
:1038D00020F0952311F00C94DA1B0C94E01B1124BA
:1038E0000C944C1C0E94291C70F3959FC1F3950FFA
:1038F00050E0551F629FF001729FBB27F00DB11D74
:10390000639FAA27F00DB11DAA1F649F6627B00D03
:10391000A11D661F829F2227B00DA11D621F739FEC
:10392000B00DA11D621F839FA00D611D221F749FFA
:103930003327A00D611D231F849F600D211D822F41
:10394000762F6A2F11249F5750409AF0F1F0882368
:103950004AF0EE0FFF1FBB1F661F771F881F915095
:103960005040A9F79E3F510580F00C94DA1B0C944F
:103970004C1C5F3FE4F3983ED4F3869577956795AA
:10398000B795F795E7959F5FC1F7FE2B880F911DBF
:103990009695879597F908959B01AC010C945F1C4F
:0E39A0000E94B61B880B990B0895F894FFCF78
:1039AE0014AEA941000040400000C841D7A33040EA
:1039BE003333734050000000B200B200B200B200C8
:1039CE00B200B200B200B20000000000B90219024B
:1039DE0046020603770255026902000000007406D3
:1039EE004706A3061D0640062D061E066E616E00D6
:1039FE00696E66006F766600546172676574416E1B
:103A0E00676C65203D20002C2046726F6E7420443A
:103A1E00697374616E6365203D2000636D000D0A4D
:023A2E00000096
:00000001FF
